{
	"data": {
		"bytecode": {
			"linkReferences": {},
			"object": "6080604052348015600f57600080fd5b5061127c8061001f6000396000f3fe608060405234801561001057600080fd5b50600436106100625760003560e01c806311bd30a11461006757806312ccecd4146100995780634213daf0146100c95780638d1b2025146100e5578063f497e18914610115578063f880cb3914610133575b600080fd5b610081600480360381019061007c91906109f6565b61014f565b60405161009093929190610b18565b60405180910390f35b6100b360048036038101906100ae91906109f6565b610318565b6040516100c09190610b71565b60405180910390f35b6100e360048036038101906100de9190610b8c565b61034f565b005b6100ff60048036038101906100fa9190610c30565b610520565b60405161010c9190610c5d565b60405180910390f35b61011d610617565b60405161012a9190610c7f565b60405180910390f35b61014d60048036038101906101489190610b8c565b610624565b005b60606000806000846040516101649190610cd6565b908152602001604051809103902060020160149054906101000a900460ff166101c2576040517f08c379a00000000000000000000000000000000000000000000000000000000081526004016101b990610d39565b60405180910390fd5b600080856040516101d39190610cd6565b90815260200160405180910390206040518060800160405290816000820180546101fc90610d88565b80601f016020809104026020016040519081016040528092919081815260200182805461022890610d88565b80156102755780601f1061024a57610100808354040283529160200191610275565b820191906000526020600020905b81548152906001019060200180831161025857829003601f168201915b50505050508152602001600182015481526020016002820160009054906101000a900473ffffffffffffffffffffffffffffffffffffffff1673ffffffffffffffffffffffffffffffffffffffff1673ffffffffffffffffffffffffffffffffffffffff1681526020016002820160149054906101000a900460ff1615151515815250509050806000015181602001518260400151935093509350509193909250565b600080826040516103299190610cd6565b908152602001604051809103902060020160149054906101000a900460ff169050919050565b60008260405161035f9190610cd6565b908152602001604051809103902060020160149054906101000a900460ff166103bd576040517f08c379a00000000000000000000000000000000000000000000000000000000081526004016103b490610d39565b60405180910390fd5b6000815111610401576040517f08c379a00000000000000000000000000000000000000000000000000000000081526004016103f890610e05565b60405180910390fd5b806000836040516104129190610cd6565b9081526020016040518091039020600001908161042f9190610fd1565b50426000836040516104419190610cd6565b908152602001604051809103902060010181905550336000836040516104679190610cd6565b908152602001604051809103902060020160006101000a81548173ffffffffffffffffffffffffffffffffffffffff021916908373ffffffffffffffffffffffffffffffffffffffff1602179055503373ffffffffffffffffffffffffffffffffffffffff16826040516104db9190610cd6565b60405180910390207f9a2154e7114ca7a83430b142d8885a5d2e3c1901fbda69848169f14cf62d106183426040516105149291906110a3565b60405180910390a35050565b60606001805490508210610569576040517f08c379a00000000000000000000000000000000000000000000000000000000081526004016105609061111f565b60405180910390fd5b6001828154811061057d5761057c61113f565b5b90600052602060002001805461059290610d88565b80601f01602080910402602001604051908101604052809291908181526020018280546105be90610d88565b801561060b5780601f106105e05761010080835404028352916020019161060b565b820191906000526020600020905b8154815290600101906020018083116105ee57829003601f168201915b50505050509050919050565b6000600180549050905090565b6000826040516106349190610cd6565b908152602001604051809103902060020160149054906101000a900460ff1615610693576040517f08c379a000000000000000000000000000000000000000000000000000000000815260040161068a906111ba565b60405180910390fd5b60008251116106d7576040517f08c379a00000000000000000000000000000000000000000000000000000000081526004016106ce90611226565b60405180910390fd5b600081511161071b576040517f08c379a000000000000000000000000000000000000000000000000000000000815260040161071290610e05565b60405180910390fd5b60405180608001604052808281526020014281526020013373ffffffffffffffffffffffffffffffffffffffff168152602001600115158152506000836040516107659190610cd6565b908152602001604051809103902060008201518160000190816107889190610fd1565b506020820151816001015560408201518160020160006101000a81548173ffffffffffffffffffffffffffffffffffffffff021916908373ffffffffffffffffffffffffffffffffffffffff16021790555060608201518160020160146101000a81548160ff0219169083151502179055509050506001829080600181540180825580915050600190039060005260206000200160009091909190915090816108319190610fd1565b503373ffffffffffffffffffffffffffffffffffffffff16826040516108579190610cd6565b60405180910390207fa1698454da2bf3265533b0d609aaa7f1a81cee428b9673dd2975b0b433a8467c83426040516108909291906110a3565b60405180910390a35050565b6000604051905090565b600080fd5b600080fd5b600080fd5b600080fd5b6000601f19601f8301169050919050565b7f4e487b7100000000000000000000000000000000000000000000000000000000600052604160045260246000fd5b610903826108ba565b810181811067ffffffffffffffff82111715610922576109216108cb565b5b80604052505050565b600061093561089c565b905061094182826108fa565b919050565b600067ffffffffffffffff821115610961576109606108cb565b5b61096a826108ba565b9050602081019050919050565b82818337600083830152505050565b600061099961099484610946565b61092b565b9050828152602081018484840111156109b5576109b46108b5565b5b6109c0848285610977565b509392505050565b600082601f8301126109dd576109dc6108b0565b5b81356109ed848260208601610986565b91505092915050565b600060208284031215610a0c57610a0b6108a6565b5b600082013567ffffffffffffffff811115610a2a57610a296108ab565b5b610a36848285016109c8565b91505092915050565b600081519050919050565b600082825260208201905092915050565b60005b83811015610a79578082015181840152602081019050610a5e565b60008484015250505050565b6000610a9082610a3f565b610a9a8185610a4a565b9350610aaa818560208601610a5b565b610ab3816108ba565b840191505092915050565b6000819050919050565b610ad181610abe565b82525050565b600073ffffffffffffffffffffffffffffffffffffffff82169050919050565b6000610b0282610ad7565b9050919050565b610b1281610af7565b82525050565b60006060820190508181036000830152610b328186610a85565b9050610b416020830185610ac8565b610b4e6040830184610b09565b949350505050565b60008115159050919050565b610b6b81610b56565b82525050565b6000602082019050610b866000830184610b62565b92915050565b60008060408385031215610ba357610ba26108a6565b5b600083013567ffffffffffffffff811115610bc157610bc06108ab565b5b610bcd858286016109c8565b925050602083013567ffffffffffffffff811115610bee57610bed6108ab565b5b610bfa858286016109c8565b9150509250929050565b610c0d81610abe565b8114610c1857600080fd5b50565b600081359050610c2a81610c04565b92915050565b600060208284031215610c4657610c456108a6565b5b6000610c5484828501610c1b565b91505092915050565b60006020820190508181036000830152610c778184610a85565b905092915050565b6000602082019050610c946000830184610ac8565b92915050565b600081905092915050565b6000610cb082610a3f565b610cba8185610c9a565b9350610cca818560208601610a5b565b80840191505092915050565b6000610ce28284610ca5565b915081905092915050565b7f50617469656e74207265636f726420646f6573206e6f74206578697374000000600082015250565b6000610d23601d83610a4a565b9150610d2e82610ced565b602082019050919050565b60006020820190508181036000830152610d5281610d16565b9050919050565b7f4e487b7100000000000000000000000000000000000000000000000000000000600052602260045260246000fd5b60006002820490506001821680610da057607f821691505b602082108103610db357610db2610d59565b5b50919050565b7f49504653204349442063616e6e6f7420626520656d7074790000000000000000600082015250565b6000610def601883610a4a565b9150610dfa82610db9565b602082019050919050565b60006020820190508181036000830152610e1e81610de2565b9050919050565b60008190508160005260206000209050919050565b60006020601f8301049050919050565b600082821b905092915050565b600060088302610e877fffffffffffffffffffffffffffffffffffffffffffffffffffffffffffffffff82610e4a565b610e918683610e4a565b95508019841693508086168417925050509392505050565b6000819050919050565b6000610ece610ec9610ec484610abe565b610ea9565b610abe565b9050919050565b6000819050919050565b610ee883610eb3565b610efc610ef482610ed5565b848454610e57565b825550505050565b600090565b610f11610f04565b610f1c818484610edf565b505050565b5b81811015610f4057610f35600082610f09565b600181019050610f22565b5050565b601f821115610f8557610f5681610e25565b610f5f84610e3a565b81016020851015610f6e578190505b610f82610f7a85610e3a565b830182610f21565b50505b505050565b600082821c905092915050565b6000610fa860001984600802610f8a565b1980831691505092915050565b6000610fc18383610f97565b9150826002028217905092915050565b610fda82610a3f565b67ffffffffffffffff811115610ff357610ff26108cb565b5b610ffd8254610d88565b611008828285610f44565b600060209050601f83116001811461103b5760008415611029578287015190505b6110338582610fb5565b86555061109b565b601f19841661104986610e25565b60005b828110156110715784890151825560018201915060208501945060208101905061104c565b8683101561108e578489015161108a601f891682610f97565b8355505b6001600288020188555050505b505050505050565b600060408201905081810360008301526110bd8185610a85565b90506110cc6020830184610ac8565b9392505050565b7f496e646578206f7574206f6620626f756e647300000000000000000000000000600082015250565b6000611109601383610a4a565b9150611114826110d3565b602082019050919050565b60006020820190508181036000830152611138816110fc565b9050919050565b7f4e487b7100000000000000000000000000000000000000000000000000000000600052603260045260246000fd5b7f50617469656e74207265636f726420616c726561647920657869737473000000600082015250565b60006111a4601d83610a4a565b91506111af8261116e565b602082019050919050565b600060208201905081810360008301526111d381611197565b9050919050565b7f50617469656e742049442063616e6e6f7420626520656d707479000000000000600082015250565b6000611210601a83610a4a565b915061121b826111da565b602082019050919050565b6000602082019050818103600083015261123f81611203565b905091905056fea26469706673582212204c5a9ae185beeaadfc5d38102537fd7b60e411376641dfe9f8feea51b999145064736f6c634300081e0033",
			"opcodes": "PUSH1 0x80 PUSH1 0x40 MSTORE CALLVALUE DUP1 ISZERO PUSH1 0xF JUMPI PUSH1 0x0 DUP1 REVERT JUMPDEST POP PUSH2 0x127C DUP1 PUSH2 0x1F PUSH1 0x0 CODECOPY PUSH1 0x0 RETURN INVALID PUSH1 0x80 PUSH1 0x40 MSTORE CALLVALUE DUP1 ISZERO PUSH2 0x10 JUMPI PUSH1 0x0 DUP1 REVERT JUMPDEST POP PUSH1 0x4 CALLDATASIZE LT PUSH2 0x62 JUMPI PUSH1 0x0 CALLDATALOAD PUSH1 0xE0 SHR DUP1 PUSH4 0x11BD30A1 EQ PUSH2 0x67 JUMPI DUP1 PUSH4 0x12CCECD4 EQ PUSH2 0x99 JUMPI DUP1 PUSH4 0x4213DAF0 EQ PUSH2 0xC9 JUMPI DUP1 PUSH4 0x8D1B2025 EQ PUSH2 0xE5 JUMPI DUP1 PUSH4 0xF497E189 EQ PUSH2 0x115 JUMPI DUP1 PUSH4 0xF880CB39 EQ PUSH2 0x133 JUMPI JUMPDEST PUSH1 0x0 DUP1 REVERT JUMPDEST PUSH2 0x81 PUSH1 0x4 DUP1 CALLDATASIZE SUB DUP2 ADD SWAP1 PUSH2 0x7C SWAP2 SWAP1 PUSH2 0x9F6 JUMP JUMPDEST PUSH2 0x14F JUMP JUMPDEST PUSH1 0x40 MLOAD PUSH2 0x90 SWAP4 SWAP3 SWAP2 SWAP1 PUSH2 0xB18 JUMP JUMPDEST PUSH1 0x40 MLOAD DUP1 SWAP2 SUB SWAP1 RETURN JUMPDEST PUSH2 0xB3 PUSH1 0x4 DUP1 CALLDATASIZE SUB DUP2 ADD SWAP1 PUSH2 0xAE SWAP2 SWAP1 PUSH2 0x9F6 JUMP JUMPDEST PUSH2 0x318 JUMP JUMPDEST PUSH1 0x40 MLOAD PUSH2 0xC0 SWAP2 SWAP1 PUSH2 0xB71 JUMP JUMPDEST PUSH1 0x40 MLOAD DUP1 SWAP2 SUB SWAP1 RETURN JUMPDEST PUSH2 0xE3 PUSH1 0x4 DUP1 CALLDATASIZE SUB DUP2 ADD SWAP1 PUSH2 0xDE SWAP2 SWAP1 PUSH2 0xB8C JUMP JUMPDEST PUSH2 0x34F JUMP JUMPDEST STOP JUMPDEST PUSH2 0xFF PUSH1 0x4 DUP1 CALLDATASIZE SUB DUP2 ADD SWAP1 PUSH2 0xFA SWAP2 SWAP1 PUSH2 0xC30 JUMP JUMPDEST PUSH2 0x520 JUMP JUMPDEST PUSH1 0x40 MLOAD PUSH2 0x10C SWAP2 SWAP1 PUSH2 0xC5D JUMP JUMPDEST PUSH1 0x40 MLOAD DUP1 SWAP2 SUB SWAP1 RETURN JUMPDEST PUSH2 0x11D PUSH2 0x617 JUMP JUMPDEST PUSH1 0x40 MLOAD PUSH2 0x12A SWAP2 SWAP1 PUSH2 0xC7F JUMP JUMPDEST PUSH1 0x40 MLOAD DUP1 SWAP2 SUB SWAP1 RETURN JUMPDEST PUSH2 0x14D PUSH1 0x4 DUP1 CALLDATASIZE SUB DUP2 ADD SWAP1 PUSH2 0x148 SWAP2 SWAP1 PUSH2 0xB8C JUMP JUMPDEST PUSH2 0x624 JUMP JUMPDEST STOP JUMPDEST PUSH1 0x60 PUSH1 0x0 DUP1 PUSH1 0x0 DUP5 PUSH1 0x40 MLOAD PUSH2 0x164 SWAP2 SWAP1 PUSH2 0xCD6 JUMP JUMPDEST SWAP1 DUP2 MSTORE PUSH1 0x20 ADD PUSH1 0x40 MLOAD DUP1 SWAP2 SUB SWAP1 KECCAK256 PUSH1 0x2 ADD PUSH1 0x14 SWAP1 SLOAD SWAP1 PUSH2 0x100 EXP SWAP1 DIV PUSH1 0xFF AND PUSH2 0x1C2 JUMPI PUSH1 0x40 MLOAD PUSH32 0x8C379A000000000000000000000000000000000000000000000000000000000 DUP2 MSTORE PUSH1 0x4 ADD PUSH2 0x1B9 SWAP1 PUSH2 0xD39 JUMP JUMPDEST PUSH1 0x40 MLOAD DUP1 SWAP2 SUB SWAP1 REVERT JUMPDEST PUSH1 0x0 DUP1 DUP6 PUSH1 0x40 MLOAD PUSH2 0x1D3 SWAP2 SWAP1 PUSH2 0xCD6 JUMP JUMPDEST SWAP1 DUP2 MSTORE PUSH1 0x20 ADD PUSH1 0x40 MLOAD DUP1 SWAP2 SUB SWAP1 KECCAK256 PUSH1 0x40 MLOAD DUP1 PUSH1 0x80 ADD PUSH1 0x40 MSTORE SWAP1 DUP2 PUSH1 0x0 DUP3 ADD DUP1 SLOAD PUSH2 0x1FC SWAP1 PUSH2 0xD88 JUMP JUMPDEST DUP1 PUSH1 0x1F ADD PUSH1 0x20 DUP1 SWAP2 DIV MUL PUSH1 0x20 ADD PUSH1 0x40 MLOAD SWAP1 DUP2 ADD PUSH1 0x40 MSTORE DUP1 SWAP3 SWAP2 SWAP1 DUP2 DUP2 MSTORE PUSH1 0x20 ADD DUP3 DUP1 SLOAD PUSH2 0x228 SWAP1 PUSH2 0xD88 JUMP JUMPDEST DUP1 ISZERO PUSH2 0x275 JUMPI DUP1 PUSH1 0x1F LT PUSH2 0x24A JUMPI PUSH2 0x100 DUP1 DUP4 SLOAD DIV MUL DUP4 MSTORE SWAP2 PUSH1 0x20 ADD SWAP2 PUSH2 0x275 JUMP JUMPDEST DUP3 ADD SWAP2 SWAP1 PUSH1 0x0 MSTORE PUSH1 0x20 PUSH1 0x0 KECCAK256 SWAP1 JUMPDEST DUP2 SLOAD DUP2 MSTORE SWAP1 PUSH1 0x1 ADD SWAP1 PUSH1 0x20 ADD DUP1 DUP4 GT PUSH2 0x258 JUMPI DUP3 SWAP1 SUB PUSH1 0x1F AND DUP3 ADD SWAP2 JUMPDEST POP POP POP POP POP DUP2 MSTORE PUSH1 0x20 ADD PUSH1 0x1 DUP3 ADD SLOAD DUP2 MSTORE PUSH1 0x20 ADD PUSH1 0x2 DUP3 ADD PUSH1 0x0 SWAP1 SLOAD SWAP1 PUSH2 0x100 EXP SWAP1 DIV PUSH20 0xFFFFFFFFFFFFFFFFFFFFFFFFFFFFFFFFFFFFFFFF AND PUSH20 0xFFFFFFFFFFFFFFFFFFFFFFFFFFFFFFFFFFFFFFFF AND PUSH20 0xFFFFFFFFFFFFFFFFFFFFFFFFFFFFFFFFFFFFFFFF AND DUP2 MSTORE PUSH1 0x20 ADD PUSH1 0x2 DUP3 ADD PUSH1 0x14 SWAP1 SLOAD SWAP1 PUSH2 0x100 EXP SWAP1 DIV PUSH1 0xFF AND ISZERO ISZERO ISZERO ISZERO DUP2 MSTORE POP POP SWAP1 POP DUP1 PUSH1 0x0 ADD MLOAD DUP2 PUSH1 0x20 ADD MLOAD DUP3 PUSH1 0x40 ADD MLOAD SWAP4 POP SWAP4 POP SWAP4 POP POP SWAP2 SWAP4 SWAP1 SWAP3 POP JUMP JUMPDEST PUSH1 0x0 DUP1 DUP3 PUSH1 0x40 MLOAD PUSH2 0x329 SWAP2 SWAP1 PUSH2 0xCD6 JUMP JUMPDEST SWAP1 DUP2 MSTORE PUSH1 0x20 ADD PUSH1 0x40 MLOAD DUP1 SWAP2 SUB SWAP1 KECCAK256 PUSH1 0x2 ADD PUSH1 0x14 SWAP1 SLOAD SWAP1 PUSH2 0x100 EXP SWAP1 DIV PUSH1 0xFF AND SWAP1 POP SWAP2 SWAP1 POP JUMP JUMPDEST PUSH1 0x0 DUP3 PUSH1 0x40 MLOAD PUSH2 0x35F SWAP2 SWAP1 PUSH2 0xCD6 JUMP JUMPDEST SWAP1 DUP2 MSTORE PUSH1 0x20 ADD PUSH1 0x40 MLOAD DUP1 SWAP2 SUB SWAP1 KECCAK256 PUSH1 0x2 ADD PUSH1 0x14 SWAP1 SLOAD SWAP1 PUSH2 0x100 EXP SWAP1 DIV PUSH1 0xFF AND PUSH2 0x3BD JUMPI PUSH1 0x40 MLOAD PUSH32 0x8C379A000000000000000000000000000000000000000000000000000000000 DUP2 MSTORE PUSH1 0x4 ADD PUSH2 0x3B4 SWAP1 PUSH2 0xD39 JUMP JUMPDEST PUSH1 0x40 MLOAD DUP1 SWAP2 SUB SWAP1 REVERT JUMPDEST PUSH1 0x0 DUP2 MLOAD GT PUSH2 0x401 JUMPI PUSH1 0x40 MLOAD PUSH32 0x8C379A000000000000000000000000000000000000000000000000000000000 DUP2 MSTORE PUSH1 0x4 ADD PUSH2 0x3F8 SWAP1 PUSH2 0xE05 JUMP JUMPDEST PUSH1 0x40 MLOAD DUP1 SWAP2 SUB SWAP1 REVERT JUMPDEST DUP1 PUSH1 0x0 DUP4 PUSH1 0x40 MLOAD PUSH2 0x412 SWAP2 SWAP1 PUSH2 0xCD6 JUMP JUMPDEST SWAP1 DUP2 MSTORE PUSH1 0x20 ADD PUSH1 0x40 MLOAD DUP1 SWAP2 SUB SWAP1 KECCAK256 PUSH1 0x0 ADD SWAP1 DUP2 PUSH2 0x42F SWAP2 SWAP1 PUSH2 0xFD1 JUMP JUMPDEST POP TIMESTAMP PUSH1 0x0 DUP4 PUSH1 0x40 MLOAD PUSH2 0x441 SWAP2 SWAP1 PUSH2 0xCD6 JUMP JUMPDEST SWAP1 DUP2 MSTORE PUSH1 0x20 ADD PUSH1 0x40 MLOAD DUP1 SWAP2 SUB SWAP1 KECCAK256 PUSH1 0x1 ADD DUP2 SWAP1 SSTORE POP CALLER PUSH1 0x0 DUP4 PUSH1 0x40 MLOAD PUSH2 0x467 SWAP2 SWAP1 PUSH2 0xCD6 JUMP JUMPDEST SWAP1 DUP2 MSTORE PUSH1 0x20 ADD PUSH1 0x40 MLOAD DUP1 SWAP2 SUB SWAP1 KECCAK256 PUSH1 0x2 ADD PUSH1 0x0 PUSH2 0x100 EXP DUP2 SLOAD DUP2 PUSH20 0xFFFFFFFFFFFFFFFFFFFFFFFFFFFFFFFFFFFFFFFF MUL NOT AND SWAP1 DUP4 PUSH20 0xFFFFFFFFFFFFFFFFFFFFFFFFFFFFFFFFFFFFFFFF AND MUL OR SWAP1 SSTORE POP CALLER PUSH20 0xFFFFFFFFFFFFFFFFFFFFFFFFFFFFFFFFFFFFFFFF AND DUP3 PUSH1 0x40 MLOAD PUSH2 0x4DB SWAP2 SWAP1 PUSH2 0xCD6 JUMP JUMPDEST PUSH1 0x40 MLOAD DUP1 SWAP2 SUB SWAP1 KECCAK256 PUSH32 0x9A2154E7114CA7A83430B142D8885A5D2E3C1901FBDA69848169F14CF62D1061 DUP4 TIMESTAMP PUSH1 0x40 MLOAD PUSH2 0x514 SWAP3 SWAP2 SWAP1 PUSH2 0x10A3 JUMP JUMPDEST PUSH1 0x40 MLOAD DUP1 SWAP2 SUB SWAP1 LOG3 POP POP JUMP JUMPDEST PUSH1 0x60 PUSH1 0x1 DUP1 SLOAD SWAP1 POP DUP3 LT PUSH2 0x569 JUMPI PUSH1 0x40 MLOAD PUSH32 0x8C379A000000000000000000000000000000000000000000000000000000000 DUP2 MSTORE PUSH1 0x4 ADD PUSH2 0x560 SWAP1 PUSH2 0x111F JUMP JUMPDEST PUSH1 0x40 MLOAD DUP1 SWAP2 SUB SWAP1 REVERT JUMPDEST PUSH1 0x1 DUP3 DUP2 SLOAD DUP2 LT PUSH2 0x57D JUMPI PUSH2 0x57C PUSH2 0x113F JUMP JUMPDEST JUMPDEST SWAP1 PUSH1 0x0 MSTORE PUSH1 0x20 PUSH1 0x0 KECCAK256 ADD DUP1 SLOAD PUSH2 0x592 SWAP1 PUSH2 0xD88 JUMP JUMPDEST DUP1 PUSH1 0x1F ADD PUSH1 0x20 DUP1 SWAP2 DIV MUL PUSH1 0x20 ADD PUSH1 0x40 MLOAD SWAP1 DUP2 ADD PUSH1 0x40 MSTORE DUP1 SWAP3 SWAP2 SWAP1 DUP2 DUP2 MSTORE PUSH1 0x20 ADD DUP3 DUP1 SLOAD PUSH2 0x5BE SWAP1 PUSH2 0xD88 JUMP JUMPDEST DUP1 ISZERO PUSH2 0x60B JUMPI DUP1 PUSH1 0x1F LT PUSH2 0x5E0 JUMPI PUSH2 0x100 DUP1 DUP4 SLOAD DIV MUL DUP4 MSTORE SWAP2 PUSH1 0x20 ADD SWAP2 PUSH2 0x60B JUMP JUMPDEST DUP3 ADD SWAP2 SWAP1 PUSH1 0x0 MSTORE PUSH1 0x20 PUSH1 0x0 KECCAK256 SWAP1 JUMPDEST DUP2 SLOAD DUP2 MSTORE SWAP1 PUSH1 0x1 ADD SWAP1 PUSH1 0x20 ADD DUP1 DUP4 GT PUSH2 0x5EE JUMPI DUP3 SWAP1 SUB PUSH1 0x1F AND DUP3 ADD SWAP2 JUMPDEST POP POP POP POP POP SWAP1 POP SWAP2 SWAP1 POP JUMP JUMPDEST PUSH1 0x0 PUSH1 0x1 DUP1 SLOAD SWAP1 POP SWAP1 POP SWAP1 JUMP JUMPDEST PUSH1 0x0 DUP3 PUSH1 0x40 MLOAD PUSH2 0x634 SWAP2 SWAP1 PUSH2 0xCD6 JUMP JUMPDEST SWAP1 DUP2 MSTORE PUSH1 0x20 ADD PUSH1 0x40 MLOAD DUP1 SWAP2 SUB SWAP1 KECCAK256 PUSH1 0x2 ADD PUSH1 0x14 SWAP1 SLOAD SWAP1 PUSH2 0x100 EXP SWAP1 DIV PUSH1 0xFF AND ISZERO PUSH2 0x693 JUMPI PUSH1 0x40 MLOAD PUSH32 0x8C379A000000000000000000000000000000000000000000000000000000000 DUP2 MSTORE PUSH1 0x4 ADD PUSH2 0x68A SWAP1 PUSH2 0x11BA JUMP JUMPDEST PUSH1 0x40 MLOAD DUP1 SWAP2 SUB SWAP1 REVERT JUMPDEST PUSH1 0x0 DUP3 MLOAD GT PUSH2 0x6D7 JUMPI PUSH1 0x40 MLOAD PUSH32 0x8C379A000000000000000000000000000000000000000000000000000000000 DUP2 MSTORE PUSH1 0x4 ADD PUSH2 0x6CE SWAP1 PUSH2 0x1226 JUMP JUMPDEST PUSH1 0x40 MLOAD DUP1 SWAP2 SUB SWAP1 REVERT JUMPDEST PUSH1 0x0 DUP2 MLOAD GT PUSH2 0x71B JUMPI PUSH1 0x40 MLOAD PUSH32 0x8C379A000000000000000000000000000000000000000000000000000000000 DUP2 MSTORE PUSH1 0x4 ADD PUSH2 0x712 SWAP1 PUSH2 0xE05 JUMP JUMPDEST PUSH1 0x40 MLOAD DUP1 SWAP2 SUB SWAP1 REVERT JUMPDEST PUSH1 0x40 MLOAD DUP1 PUSH1 0x80 ADD PUSH1 0x40 MSTORE DUP1 DUP3 DUP2 MSTORE PUSH1 0x20 ADD TIMESTAMP DUP2 MSTORE PUSH1 0x20 ADD CALLER PUSH20 0xFFFFFFFFFFFFFFFFFFFFFFFFFFFFFFFFFFFFFFFF AND DUP2 MSTORE PUSH1 0x20 ADD PUSH1 0x1 ISZERO ISZERO DUP2 MSTORE POP PUSH1 0x0 DUP4 PUSH1 0x40 MLOAD PUSH2 0x765 SWAP2 SWAP1 PUSH2 0xCD6 JUMP JUMPDEST SWAP1 DUP2 MSTORE PUSH1 0x20 ADD PUSH1 0x40 MLOAD DUP1 SWAP2 SUB SWAP1 KECCAK256 PUSH1 0x0 DUP3 ADD MLOAD DUP2 PUSH1 0x0 ADD SWAP1 DUP2 PUSH2 0x788 SWAP2 SWAP1 PUSH2 0xFD1 JUMP JUMPDEST POP PUSH1 0x20 DUP3 ADD MLOAD DUP2 PUSH1 0x1 ADD SSTORE PUSH1 0x40 DUP3 ADD MLOAD DUP2 PUSH1 0x2 ADD PUSH1 0x0 PUSH2 0x100 EXP DUP2 SLOAD DUP2 PUSH20 0xFFFFFFFFFFFFFFFFFFFFFFFFFFFFFFFFFFFFFFFF MUL NOT AND SWAP1 DUP4 PUSH20 0xFFFFFFFFFFFFFFFFFFFFFFFFFFFFFFFFFFFFFFFF AND MUL OR SWAP1 SSTORE POP PUSH1 0x60 DUP3 ADD MLOAD DUP2 PUSH1 0x2 ADD PUSH1 0x14 PUSH2 0x100 EXP DUP2 SLOAD DUP2 PUSH1 0xFF MUL NOT AND SWAP1 DUP4 ISZERO ISZERO MUL OR SWAP1 SSTORE POP SWAP1 POP POP PUSH1 0x1 DUP3 SWAP1 DUP1 PUSH1 0x1 DUP2 SLOAD ADD DUP1 DUP3 SSTORE DUP1 SWAP2 POP POP PUSH1 0x1 SWAP1 SUB SWAP1 PUSH1 0x0 MSTORE PUSH1 0x20 PUSH1 0x0 KECCAK256 ADD PUSH1 0x0 SWAP1 SWAP2 SWAP1 SWAP2 SWAP1 SWAP2 POP SWAP1 DUP2 PUSH2 0x831 SWAP2 SWAP1 PUSH2 0xFD1 JUMP JUMPDEST POP CALLER PUSH20 0xFFFFFFFFFFFFFFFFFFFFFFFFFFFFFFFFFFFFFFFF AND DUP3 PUSH1 0x40 MLOAD PUSH2 0x857 SWAP2 SWAP1 PUSH2 0xCD6 JUMP JUMPDEST PUSH1 0x40 MLOAD DUP1 SWAP2 SUB SWAP1 KECCAK256 PUSH32 0xA1698454DA2BF3265533B0D609AAA7F1A81CEE428B9673DD2975B0B433A8467C DUP4 TIMESTAMP PUSH1 0x40 MLOAD PUSH2 0x890 SWAP3 SWAP2 SWAP1 PUSH2 0x10A3 JUMP JUMPDEST PUSH1 0x40 MLOAD DUP1 SWAP2 SUB SWAP1 LOG3 POP POP JUMP JUMPDEST PUSH1 0x0 PUSH1 0x40 MLOAD SWAP1 POP SWAP1 JUMP JUMPDEST PUSH1 0x0 DUP1 REVERT JUMPDEST PUSH1 0x0 DUP1 REVERT JUMPDEST PUSH1 0x0 DUP1 REVERT JUMPDEST PUSH1 0x0 DUP1 REVERT JUMPDEST PUSH1 0x0 PUSH1 0x1F NOT PUSH1 0x1F DUP4 ADD AND SWAP1 POP SWAP2 SWAP1 POP JUMP JUMPDEST PUSH32 0x4E487B7100000000000000000000000000000000000000000000000000000000 PUSH1 0x0 MSTORE PUSH1 0x41 PUSH1 0x4 MSTORE PUSH1 0x24 PUSH1 0x0 REVERT JUMPDEST PUSH2 0x903 DUP3 PUSH2 0x8BA JUMP JUMPDEST DUP2 ADD DUP2 DUP2 LT PUSH8 0xFFFFFFFFFFFFFFFF DUP3 GT OR ISZERO PUSH2 0x922 JUMPI PUSH2 0x921 PUSH2 0x8CB JUMP JUMPDEST JUMPDEST DUP1 PUSH1 0x40 MSTORE POP POP POP JUMP JUMPDEST PUSH1 0x0 PUSH2 0x935 PUSH2 0x89C JUMP JUMPDEST SWAP1 POP PUSH2 0x941 DUP3 DUP3 PUSH2 0x8FA JUMP JUMPDEST SWAP2 SWAP1 POP JUMP JUMPDEST PUSH1 0x0 PUSH8 0xFFFFFFFFFFFFFFFF DUP3 GT ISZERO PUSH2 0x961 JUMPI PUSH2 0x960 PUSH2 0x8CB JUMP JUMPDEST JUMPDEST PUSH2 0x96A DUP3 PUSH2 0x8BA JUMP JUMPDEST SWAP1 POP PUSH1 0x20 DUP2 ADD SWAP1 POP SWAP2 SWAP1 POP JUMP JUMPDEST DUP3 DUP2 DUP4 CALLDATACOPY PUSH1 0x0 DUP4 DUP4 ADD MSTORE POP POP POP JUMP JUMPDEST PUSH1 0x0 PUSH2 0x999 PUSH2 0x994 DUP5 PUSH2 0x946 JUMP JUMPDEST PUSH2 0x92B JUMP JUMPDEST SWAP1 POP DUP3 DUP2 MSTORE PUSH1 0x20 DUP2 ADD DUP5 DUP5 DUP5 ADD GT ISZERO PUSH2 0x9B5 JUMPI PUSH2 0x9B4 PUSH2 0x8B5 JUMP JUMPDEST JUMPDEST PUSH2 0x9C0 DUP5 DUP3 DUP6 PUSH2 0x977 JUMP JUMPDEST POP SWAP4 SWAP3 POP POP POP JUMP JUMPDEST PUSH1 0x0 DUP3 PUSH1 0x1F DUP4 ADD SLT PUSH2 0x9DD JUMPI PUSH2 0x9DC PUSH2 0x8B0 JUMP JUMPDEST JUMPDEST DUP2 CALLDATALOAD PUSH2 0x9ED DUP5 DUP3 PUSH1 0x20 DUP7 ADD PUSH2 0x986 JUMP JUMPDEST SWAP2 POP POP SWAP3 SWAP2 POP POP JUMP JUMPDEST PUSH1 0x0 PUSH1 0x20 DUP3 DUP5 SUB SLT ISZERO PUSH2 0xA0C JUMPI PUSH2 0xA0B PUSH2 0x8A6 JUMP JUMPDEST JUMPDEST PUSH1 0x0 DUP3 ADD CALLDATALOAD PUSH8 0xFFFFFFFFFFFFFFFF DUP2 GT ISZERO PUSH2 0xA2A JUMPI PUSH2 0xA29 PUSH2 0x8AB JUMP JUMPDEST JUMPDEST PUSH2 0xA36 DUP5 DUP3 DUP6 ADD PUSH2 0x9C8 JUMP JUMPDEST SWAP2 POP POP SWAP3 SWAP2 POP POP JUMP JUMPDEST PUSH1 0x0 DUP2 MLOAD SWAP1 POP SWAP2 SWAP1 POP JUMP JUMPDEST PUSH1 0x0 DUP3 DUP3 MSTORE PUSH1 0x20 DUP3 ADD SWAP1 POP SWAP3 SWAP2 POP POP JUMP JUMPDEST PUSH1 0x0 JUMPDEST DUP4 DUP2 LT ISZERO PUSH2 0xA79 JUMPI DUP1 DUP3 ADD MLOAD DUP2 DUP5 ADD MSTORE PUSH1 0x20 DUP2 ADD SWAP1 POP PUSH2 0xA5E JUMP JUMPDEST PUSH1 0x0 DUP5 DUP5 ADD MSTORE POP POP POP POP JUMP JUMPDEST PUSH1 0x0 PUSH2 0xA90 DUP3 PUSH2 0xA3F JUMP JUMPDEST PUSH2 0xA9A DUP2 DUP6 PUSH2 0xA4A JUMP JUMPDEST SWAP4 POP PUSH2 0xAAA DUP2 DUP6 PUSH1 0x20 DUP7 ADD PUSH2 0xA5B JUMP JUMPDEST PUSH2 0xAB3 DUP2 PUSH2 0x8BA JUMP JUMPDEST DUP5 ADD SWAP2 POP POP SWAP3 SWAP2 POP POP JUMP JUMPDEST PUSH1 0x0 DUP2 SWAP1 POP SWAP2 SWAP1 POP JUMP JUMPDEST PUSH2 0xAD1 DUP2 PUSH2 0xABE JUMP JUMPDEST DUP3 MSTORE POP POP JUMP JUMPDEST PUSH1 0x0 PUSH20 0xFFFFFFFFFFFFFFFFFFFFFFFFFFFFFFFFFFFFFFFF DUP3 AND SWAP1 POP SWAP2 SWAP1 POP JUMP JUMPDEST PUSH1 0x0 PUSH2 0xB02 DUP3 PUSH2 0xAD7 JUMP JUMPDEST SWAP1 POP SWAP2 SWAP1 POP JUMP JUMPDEST PUSH2 0xB12 DUP2 PUSH2 0xAF7 JUMP JUMPDEST DUP3 MSTORE POP POP JUMP JUMPDEST PUSH1 0x0 PUSH1 0x60 DUP3 ADD SWAP1 POP DUP2 DUP2 SUB PUSH1 0x0 DUP4 ADD MSTORE PUSH2 0xB32 DUP2 DUP7 PUSH2 0xA85 JUMP JUMPDEST SWAP1 POP PUSH2 0xB41 PUSH1 0x20 DUP4 ADD DUP6 PUSH2 0xAC8 JUMP JUMPDEST PUSH2 0xB4E PUSH1 0x40 DUP4 ADD DUP5 PUSH2 0xB09 JUMP JUMPDEST SWAP5 SWAP4 POP POP POP POP JUMP JUMPDEST PUSH1 0x0 DUP2 ISZERO ISZERO SWAP1 POP SWAP2 SWAP1 POP JUMP JUMPDEST PUSH2 0xB6B DUP2 PUSH2 0xB56 JUMP JUMPDEST DUP3 MSTORE POP POP JUMP JUMPDEST PUSH1 0x0 PUSH1 0x20 DUP3 ADD SWAP1 POP PUSH2 0xB86 PUSH1 0x0 DUP4 ADD DUP5 PUSH2 0xB62 JUMP JUMPDEST SWAP3 SWAP2 POP POP JUMP JUMPDEST PUSH1 0x0 DUP1 PUSH1 0x40 DUP4 DUP6 SUB SLT ISZERO PUSH2 0xBA3 JUMPI PUSH2 0xBA2 PUSH2 0x8A6 JUMP JUMPDEST JUMPDEST PUSH1 0x0 DUP4 ADD CALLDATALOAD PUSH8 0xFFFFFFFFFFFFFFFF DUP2 GT ISZERO PUSH2 0xBC1 JUMPI PUSH2 0xBC0 PUSH2 0x8AB JUMP JUMPDEST JUMPDEST PUSH2 0xBCD DUP6 DUP3 DUP7 ADD PUSH2 0x9C8 JUMP JUMPDEST SWAP3 POP POP PUSH1 0x20 DUP4 ADD CALLDATALOAD PUSH8 0xFFFFFFFFFFFFFFFF DUP2 GT ISZERO PUSH2 0xBEE JUMPI PUSH2 0xBED PUSH2 0x8AB JUMP JUMPDEST JUMPDEST PUSH2 0xBFA DUP6 DUP3 DUP7 ADD PUSH2 0x9C8 JUMP JUMPDEST SWAP2 POP POP SWAP3 POP SWAP3 SWAP1 POP JUMP JUMPDEST PUSH2 0xC0D DUP2 PUSH2 0xABE JUMP JUMPDEST DUP2 EQ PUSH2 0xC18 JUMPI PUSH1 0x0 DUP1 REVERT JUMPDEST POP JUMP JUMPDEST PUSH1 0x0 DUP2 CALLDATALOAD SWAP1 POP PUSH2 0xC2A DUP2 PUSH2 0xC04 JUMP JUMPDEST SWAP3 SWAP2 POP POP JUMP JUMPDEST PUSH1 0x0 PUSH1 0x20 DUP3 DUP5 SUB SLT ISZERO PUSH2 0xC46 JUMPI PUSH2 0xC45 PUSH2 0x8A6 JUMP JUMPDEST JUMPDEST PUSH1 0x0 PUSH2 0xC54 DUP5 DUP3 DUP6 ADD PUSH2 0xC1B JUMP JUMPDEST SWAP2 POP POP SWAP3 SWAP2 POP POP JUMP JUMPDEST PUSH1 0x0 PUSH1 0x20 DUP3 ADD SWAP1 POP DUP2 DUP2 SUB PUSH1 0x0 DUP4 ADD MSTORE PUSH2 0xC77 DUP2 DUP5 PUSH2 0xA85 JUMP JUMPDEST SWAP1 POP SWAP3 SWAP2 POP POP JUMP JUMPDEST PUSH1 0x0 PUSH1 0x20 DUP3 ADD SWAP1 POP PUSH2 0xC94 PUSH1 0x0 DUP4 ADD DUP5 PUSH2 0xAC8 JUMP JUMPDEST SWAP3 SWAP2 POP POP JUMP JUMPDEST PUSH1 0x0 DUP2 SWAP1 POP SWAP3 SWAP2 POP POP JUMP JUMPDEST PUSH1 0x0 PUSH2 0xCB0 DUP3 PUSH2 0xA3F JUMP JUMPDEST PUSH2 0xCBA DUP2 DUP6 PUSH2 0xC9A JUMP JUMPDEST SWAP4 POP PUSH2 0xCCA DUP2 DUP6 PUSH1 0x20 DUP7 ADD PUSH2 0xA5B JUMP JUMPDEST DUP1 DUP5 ADD SWAP2 POP POP SWAP3 SWAP2 POP POP JUMP JUMPDEST PUSH1 0x0 PUSH2 0xCE2 DUP3 DUP5 PUSH2 0xCA5 JUMP JUMPDEST SWAP2 POP DUP2 SWAP1 POP SWAP3 SWAP2 POP POP JUMP JUMPDEST PUSH32 0x50617469656E74207265636F726420646F6573206E6F74206578697374000000 PUSH1 0x0 DUP3 ADD MSTORE POP JUMP JUMPDEST PUSH1 0x0 PUSH2 0xD23 PUSH1 0x1D DUP4 PUSH2 0xA4A JUMP JUMPDEST SWAP2 POP PUSH2 0xD2E DUP3 PUSH2 0xCED JUMP JUMPDEST PUSH1 0x20 DUP3 ADD SWAP1 POP SWAP2 SWAP1 POP JUMP JUMPDEST PUSH1 0x0 PUSH1 0x20 DUP3 ADD SWAP1 POP DUP2 DUP2 SUB PUSH1 0x0 DUP4 ADD MSTORE PUSH2 0xD52 DUP2 PUSH2 0xD16 JUMP JUMPDEST SWAP1 POP SWAP2 SWAP1 POP JUMP JUMPDEST PUSH32 0x4E487B7100000000000000000000000000000000000000000000000000000000 PUSH1 0x0 MSTORE PUSH1 0x22 PUSH1 0x4 MSTORE PUSH1 0x24 PUSH1 0x0 REVERT JUMPDEST PUSH1 0x0 PUSH1 0x2 DUP3 DIV SWAP1 POP PUSH1 0x1 DUP3 AND DUP1 PUSH2 0xDA0 JUMPI PUSH1 0x7F DUP3 AND SWAP2 POP JUMPDEST PUSH1 0x20 DUP3 LT DUP2 SUB PUSH2 0xDB3 JUMPI PUSH2 0xDB2 PUSH2 0xD59 JUMP JUMPDEST JUMPDEST POP SWAP2 SWAP1 POP JUMP JUMPDEST PUSH32 0x49504653204349442063616E6E6F7420626520656D7074790000000000000000 PUSH1 0x0 DUP3 ADD MSTORE POP JUMP JUMPDEST PUSH1 0x0 PUSH2 0xDEF PUSH1 0x18 DUP4 PUSH2 0xA4A JUMP JUMPDEST SWAP2 POP PUSH2 0xDFA DUP3 PUSH2 0xDB9 JUMP JUMPDEST PUSH1 0x20 DUP3 ADD SWAP1 POP SWAP2 SWAP1 POP JUMP JUMPDEST PUSH1 0x0 PUSH1 0x20 DUP3 ADD SWAP1 POP DUP2 DUP2 SUB PUSH1 0x0 DUP4 ADD MSTORE PUSH2 0xE1E DUP2 PUSH2 0xDE2 JUMP JUMPDEST SWAP1 POP SWAP2 SWAP1 POP JUMP JUMPDEST PUSH1 0x0 DUP2 SWAP1 POP DUP2 PUSH1 0x0 MSTORE PUSH1 0x20 PUSH1 0x0 KECCAK256 SWAP1 POP SWAP2 SWAP1 POP JUMP JUMPDEST PUSH1 0x0 PUSH1 0x20 PUSH1 0x1F DUP4 ADD DIV SWAP1 POP SWAP2 SWAP1 POP JUMP JUMPDEST PUSH1 0x0 DUP3 DUP3 SHL SWAP1 POP SWAP3 SWAP2 POP POP JUMP JUMPDEST PUSH1 0x0 PUSH1 0x8 DUP4 MUL PUSH2 0xE87 PUSH32 0xFFFFFFFFFFFFFFFFFFFFFFFFFFFFFFFFFFFFFFFFFFFFFFFFFFFFFFFFFFFFFFFF DUP3 PUSH2 0xE4A JUMP JUMPDEST PUSH2 0xE91 DUP7 DUP4 PUSH2 0xE4A JUMP JUMPDEST SWAP6 POP DUP1 NOT DUP5 AND SWAP4 POP DUP1 DUP7 AND DUP5 OR SWAP3 POP POP POP SWAP4 SWAP3 POP POP POP JUMP JUMPDEST PUSH1 0x0 DUP2 SWAP1 POP SWAP2 SWAP1 POP JUMP JUMPDEST PUSH1 0x0 PUSH2 0xECE PUSH2 0xEC9 PUSH2 0xEC4 DUP5 PUSH2 0xABE JUMP JUMPDEST PUSH2 0xEA9 JUMP JUMPDEST PUSH2 0xABE JUMP JUMPDEST SWAP1 POP SWAP2 SWAP1 POP JUMP JUMPDEST PUSH1 0x0 DUP2 SWAP1 POP SWAP2 SWAP1 POP JUMP JUMPDEST PUSH2 0xEE8 DUP4 PUSH2 0xEB3 JUMP JUMPDEST PUSH2 0xEFC PUSH2 0xEF4 DUP3 PUSH2 0xED5 JUMP JUMPDEST DUP5 DUP5 SLOAD PUSH2 0xE57 JUMP JUMPDEST DUP3 SSTORE POP POP POP POP JUMP JUMPDEST PUSH1 0x0 SWAP1 JUMP JUMPDEST PUSH2 0xF11 PUSH2 0xF04 JUMP JUMPDEST PUSH2 0xF1C DUP2 DUP5 DUP5 PUSH2 0xEDF JUMP JUMPDEST POP POP POP JUMP JUMPDEST JUMPDEST DUP2 DUP2 LT ISZERO PUSH2 0xF40 JUMPI PUSH2 0xF35 PUSH1 0x0 DUP3 PUSH2 0xF09 JUMP JUMPDEST PUSH1 0x1 DUP2 ADD SWAP1 POP PUSH2 0xF22 JUMP JUMPDEST POP POP JUMP JUMPDEST PUSH1 0x1F DUP3 GT ISZERO PUSH2 0xF85 JUMPI PUSH2 0xF56 DUP2 PUSH2 0xE25 JUMP JUMPDEST PUSH2 0xF5F DUP5 PUSH2 0xE3A JUMP JUMPDEST DUP2 ADD PUSH1 0x20 DUP6 LT ISZERO PUSH2 0xF6E JUMPI DUP2 SWAP1 POP JUMPDEST PUSH2 0xF82 PUSH2 0xF7A DUP6 PUSH2 0xE3A JUMP JUMPDEST DUP4 ADD DUP3 PUSH2 0xF21 JUMP JUMPDEST POP POP JUMPDEST POP POP POP JUMP JUMPDEST PUSH1 0x0 DUP3 DUP3 SHR SWAP1 POP SWAP3 SWAP2 POP POP JUMP JUMPDEST PUSH1 0x0 PUSH2 0xFA8 PUSH1 0x0 NOT DUP5 PUSH1 0x8 MUL PUSH2 0xF8A JUMP JUMPDEST NOT DUP1 DUP4 AND SWAP2 POP POP SWAP3 SWAP2 POP POP JUMP JUMPDEST PUSH1 0x0 PUSH2 0xFC1 DUP4 DUP4 PUSH2 0xF97 JUMP JUMPDEST SWAP2 POP DUP3 PUSH1 0x2 MUL DUP3 OR SWAP1 POP SWAP3 SWAP2 POP POP JUMP JUMPDEST PUSH2 0xFDA DUP3 PUSH2 0xA3F JUMP JUMPDEST PUSH8 0xFFFFFFFFFFFFFFFF DUP2 GT ISZERO PUSH2 0xFF3 JUMPI PUSH2 0xFF2 PUSH2 0x8CB JUMP JUMPDEST JUMPDEST PUSH2 0xFFD DUP3 SLOAD PUSH2 0xD88 JUMP JUMPDEST PUSH2 0x1008 DUP3 DUP3 DUP6 PUSH2 0xF44 JUMP JUMPDEST PUSH1 0x0 PUSH1 0x20 SWAP1 POP PUSH1 0x1F DUP4 GT PUSH1 0x1 DUP2 EQ PUSH2 0x103B JUMPI PUSH1 0x0 DUP5 ISZERO PUSH2 0x1029 JUMPI DUP3 DUP8 ADD MLOAD SWAP1 POP JUMPDEST PUSH2 0x1033 DUP6 DUP3 PUSH2 0xFB5 JUMP JUMPDEST DUP7 SSTORE POP PUSH2 0x109B JUMP JUMPDEST PUSH1 0x1F NOT DUP5 AND PUSH2 0x1049 DUP7 PUSH2 0xE25 JUMP JUMPDEST PUSH1 0x0 JUMPDEST DUP3 DUP2 LT ISZERO PUSH2 0x1071 JUMPI DUP5 DUP10 ADD MLOAD DUP3 SSTORE PUSH1 0x1 DUP3 ADD SWAP2 POP PUSH1 0x20 DUP6 ADD SWAP5 POP PUSH1 0x20 DUP2 ADD SWAP1 POP PUSH2 0x104C JUMP JUMPDEST DUP7 DUP4 LT ISZERO PUSH2 0x108E JUMPI DUP5 DUP10 ADD MLOAD PUSH2 0x108A PUSH1 0x1F DUP10 AND DUP3 PUSH2 0xF97 JUMP JUMPDEST DUP4 SSTORE POP JUMPDEST PUSH1 0x1 PUSH1 0x2 DUP9 MUL ADD DUP9 SSTORE POP POP POP JUMPDEST POP POP POP POP POP POP JUMP JUMPDEST PUSH1 0x0 PUSH1 0x40 DUP3 ADD SWAP1 POP DUP2 DUP2 SUB PUSH1 0x0 DUP4 ADD MSTORE PUSH2 0x10BD DUP2 DUP6 PUSH2 0xA85 JUMP JUMPDEST SWAP1 POP PUSH2 0x10CC PUSH1 0x20 DUP4 ADD DUP5 PUSH2 0xAC8 JUMP JUMPDEST SWAP4 SWAP3 POP POP POP JUMP JUMPDEST PUSH32 0x496E646578206F7574206F6620626F756E647300000000000000000000000000 PUSH1 0x0 DUP3 ADD MSTORE POP JUMP JUMPDEST PUSH1 0x0 PUSH2 0x1109 PUSH1 0x13 DUP4 PUSH2 0xA4A JUMP JUMPDEST SWAP2 POP PUSH2 0x1114 DUP3 PUSH2 0x10D3 JUMP JUMPDEST PUSH1 0x20 DUP3 ADD SWAP1 POP SWAP2 SWAP1 POP JUMP JUMPDEST PUSH1 0x0 PUSH1 0x20 DUP3 ADD SWAP1 POP DUP2 DUP2 SUB PUSH1 0x0 DUP4 ADD MSTORE PUSH2 0x1138 DUP2 PUSH2 0x10FC JUMP JUMPDEST SWAP1 POP SWAP2 SWAP1 POP JUMP JUMPDEST PUSH32 0x4E487B7100000000000000000000000000000000000000000000000000000000 PUSH1 0x0 MSTORE PUSH1 0x32 PUSH1 0x4 MSTORE PUSH1 0x24 PUSH1 0x0 REVERT JUMPDEST PUSH32 0x50617469656E74207265636F726420616C726561647920657869737473000000 PUSH1 0x0 DUP3 ADD MSTORE POP JUMP JUMPDEST PUSH1 0x0 PUSH2 0x11A4 PUSH1 0x1D DUP4 PUSH2 0xA4A JUMP JUMPDEST SWAP2 POP PUSH2 0x11AF DUP3 PUSH2 0x116E JUMP JUMPDEST PUSH1 0x20 DUP3 ADD SWAP1 POP SWAP2 SWAP1 POP JUMP JUMPDEST PUSH1 0x0 PUSH1 0x20 DUP3 ADD SWAP1 POP DUP2 DUP2 SUB PUSH1 0x0 DUP4 ADD MSTORE PUSH2 0x11D3 DUP2 PUSH2 0x1197 JUMP JUMPDEST SWAP1 POP SWAP2 SWAP1 POP JUMP JUMPDEST PUSH32 0x50617469656E742049442063616E6E6F7420626520656D707479000000000000 PUSH1 0x0 DUP3 ADD MSTORE POP JUMP JUMPDEST PUSH1 0x0 PUSH2 0x1210 PUSH1 0x1A DUP4 PUSH2 0xA4A JUMP JUMPDEST SWAP2 POP PUSH2 0x121B DUP3 PUSH2 0x11DA JUMP JUMPDEST PUSH1 0x20 DUP3 ADD SWAP1 POP SWAP2 SWAP1 POP JUMP JUMPDEST PUSH1 0x0 PUSH1 0x20 DUP3 ADD SWAP1 POP DUP2 DUP2 SUB PUSH1 0x0 DUP4 ADD MSTORE PUSH2 0x123F DUP2 PUSH2 0x1203 JUMP JUMPDEST SWAP1 POP SWAP2 SWAP1 POP JUMP INVALID LOG2 PUSH5 0x6970667358 0x22 SLT KECCAK256 0x4C GAS SWAP11 RJUMPI 0x85BE 0xEA 0xAD 0xFC TSTORE CODESIZE LT 0x25 CALLDATACOPY REVERT PUSH28 0x60E411376641DFE9F8FEEA51B999145064736F6C634300081E003300 "
		},
		"gasEstimates": {
			"creation": {
				"codeDepositCost": "946400",
				"executionCost": "981",
				"totalCost": "947381"
			},
			"external": {
				"addPatientRecord(string,string)": "infinite",
				"getPatientIdByIndex(uint256)": "infinite",
				"getPatientRecord(string)": "infinite",
				"getTotalPatients()": "2511",
				"patientExists(string)": "infinite",
				"updatePatientRecord(string,string)": "infinite"
			}
		},
		"methodIdentifiers": {
			"addPatientRecord(string,string)": "f880cb39",
			"getPatientIdByIndex(uint256)": "8d1b2025",
			"getPatientRecord(string)": "11bd30a1",
			"getTotalPatients()": "f497e189",
			"patientExists(string)": "12ccecd4",
			"updatePatientRecord(string,string)": "4213daf0"
		}
	},
	"abi": [
		{
			"anonymous": false,
			"inputs": [
				{
					"indexed": true,
					"internalType": "string",
					"name": "patientId",
					"type": "string"
				},
				{
					"indexed": false,
					"internalType": "string",
					"name": "ipfsCid",
					"type": "string"
				},
				{
					"indexed": true,
					"internalType": "address",
					"name": "doctorAddress",
					"type": "address"
				},
				{
					"indexed": false,
					"internalType": "uint256",
					"name": "timestamp",
					"type": "uint256"
				}
			],
			"name": "PatientRecordAdded",
			"type": "event"
		},
		{
			"anonymous": false,
			"inputs": [
				{
					"indexed": true,
					"internalType": "string",
					"name": "patientId",
					"type": "string"
				},
				{
					"indexed": false,
					"internalType": "string",
					"name": "newIpfsCid",
					"type": "string"
				},
				{
					"indexed": true,
					"internalType": "address",
					"name": "doctorAddress",
					"type": "address"
				},
				{
					"indexed": false,
					"internalType": "uint256",
					"name": "timestamp",
					"type": "uint256"
				}
			],
			"name": "PatientRecordUpdated",
			"type": "event"
		},
		{
			"inputs": [
				{
					"internalType": "string",
					"name": "_patientId",
					"type": "string"
				},
				{
					"internalType": "string",
					"name": "_ipfsCid",
					"type": "string"
				}
			],
			"name": "addPatientRecord",
			"outputs": [],
			"stateMutability": "nonpayable",
			"type": "function"
		},
		{
			"inputs": [
				{
					"internalType": "uint256",
					"name": "_index",
					"type": "uint256"
				}
			],
			"name": "getPatientIdByIndex",
			"outputs": [
				{
					"internalType": "string",
					"name": "",
					"type": "string"
				}
			],
			"stateMutability": "view",
			"type": "function"
		},
		{
			"inputs": [
				{
					"internalType": "string",
					"name": "_patientId",
					"type": "string"
				}
			],
			"name": "getPatientRecord",
			"outputs": [
				{
					"internalType": "string",
					"name": "ipfsCid",
					"type": "string"
				},
				{
					"internalType": "uint256",
					"name": "timestamp",
					"type": "uint256"
				},
				{
					"internalType": "address",
					"name": "doctorAddress",
					"type": "address"
				}
			],
			"stateMutability": "view",
			"type": "function"
		},
		{
			"inputs": [],
			"name": "getTotalPatients",
			"outputs": [
				{
					"internalType": "uint256",
					"name": "",
					"type": "uint256"
				}
			],
			"stateMutability": "view",
			"type": "function"
		},
		{
			"inputs": [
				{
					"internalType": "string",
					"name": "_patientId",
					"type": "string"
				}
			],
			"name": "patientExists",
			"outputs": [
				{
					"internalType": "bool",
					"name": "",
					"type": "bool"
				}
			],
			"stateMutability": "view",
			"type": "function"
		},
		{
			"inputs": [
				{
					"internalType": "string",
					"name": "_patientId",
					"type": "string"
				},
				{
					"internalType": "string",
					"name": "_newIpfsCid",
					"type": "string"
				}
			],
			"name": "updatePatientRecord",
			"outputs": [],
			"stateMutability": "nonpayable",
			"type": "function"
		}
	]
}